:020000040800F2
:1000000018040020050100084103000883020008CD
:100010003D0300084D010008310600080000000003
:100020000000000000000000000000007D03000848
:1000300051010008000000005903000805050008F0
:100040001F0100081F0100081F0100081F01000810
:100050001F0100081F0100081F0100081F01000800
:100060001F0100081F0100081F0100081F010008F0
:100070001F0100081F0100081F0100081F010008E0
:100080001F0100081F0100081F0100081F010008D0
:100090001F0100081F0100081F0100081F010008C0
:1000A0001F0100081F0100081F0100081F010008B0
:1000B0001F0100081F0100081F0100081F010008A0
:1000C0001F0100081F0100081F0100081F01000890
:1000D0001F0100081F0100081F0100081F01000880
:1000E0001F0100081F0100081F010008DFF810D0E1
:1000F00000F01AF80048004751070008AFF30080ED
:10010000180400200648804706480047FEE7FEE73F
:10011000FEE7FEE7FEE7FEE7FEE7FEE7FEE7FEE7B7
:10012000D1050008ED000008064C074D06E0E06828
:1001300040F0010394E8070098471034AC42F6D32E
:10014000FFF7D8FFA0070008C007000800BFFEE7C0
:1001500070472DE9F04102460025002600200023CB
:100160000024002791F803C00CF00F0591F803C09C
:100170000CF0100CBCF1000F03D091F802C04CEA57
:10018000050591F800C0BCF1000F31D014680020C3
:100190002BE04FF0010C0CFA00F3B1F800C00CEAB0
:1001A00003069E4220D183004FF00F0C0CFA03F798
:1001B000BC4305FA03FC4CEA040491F803C0BCF10B
:1001C000280F06D14FF0010C0CFA00FCC2F814C045
:1001D0000AE091F803C0BCF1480F05D14FF0010CC3
:1001E0000CFA00FCC2F810C0401C0828D1D31460DF
:1001F000B1F800C0BCF1FF0F34DD546800202EE0E0
:1002000000F1080C4FF0010808FA0CF3B1F800C037
:100210000CEA03069E4221D183004FF00F0C0CFA2A
:1002200003F7BC4305FA03FC4CEA040491F803C04D
:10023000BCF1280F05D100F1080C08FA0CF8C2F83F
:10024000148091F803C0BCF1480F07D100F1080CED
:100250004FF0010808FA0CF8C2F81080401C08287A
:10026000CED35460BDE8F0810246002093680B4075
:100270000BB1012000E0002070474161704701612F
:10028000704700BFFEE7000008B50121082000F01C
:1002900065F810208DF8030001208DF802004FF45E
:1002A000E050ADF8000069460648FFF752FF142001
:1002B0008DF80300FF20ADF8000069460148FFF704
:1002C00048FF08BD000C014010B5FFF7DDFF3820E6
:1002D00000F0E4F90C2000F0E1F9062000F0DEF96E
:1002E000012000F0DBF910BD10B5FF2012490860B5
:1002F000891411480C38FFF7C0FF4FF400610E4815
:100300000C38FFF7BCFF4FF480610B480C38FFF747
:10031000B6FF012000F0D2F800BF802106480C385B
:10032000FFF7A2FF04464FF4806103480C38FFF743
:10033000A4FF002CF1D110BD0C0C014000BFFEE762
:100340007047000002490143024A116070470000F3
:100350000000FA050CED00E07047000029B1064AE4
:1003600092690243044B9A6104E0034A9269824312
:10037000014B9A617047000000100240704710B5B1
:1003800000F002F810BD00000CB5002001900090B4
:100390003348006840F480303149086000BF30487D
:1003A000006800F4003000900198401C0190009813
:1003B00018B90198B0F5A06FF1D12948006800F490
:1003C000003010B10120009001E000200090009862
:1003D000012843D12348006840F0100021490860FB
:1003E0000846006820F0030008600846006840F0F6
:1003F000020008601A484068194948600846406889
:1004000048600846406840F480604860084640689C
:1004100020F47C1048600846406840F4E8104860CA
:100420000846006840F08070086000BF0C48006813
:1004300000F000700028F9D00948406820F003005F
:10044000074948600846406840F00200486000BF25
:100450000348406800F00C000828F9D10CBD0000EA
:10046000001002400020024030B50146B1F1807F0B
:1004700001D3012030BD21F07F40401E4FF0E0222B
:10048000506150170F22002807DA13071D0E094B81
:1004900000F00F04241F1D5503E013071C0E064B2C
:1004A0001C5400BF00204FF0E02290610720106133
:1004B0000020DFE718ED00E000E400E031B50F4870
:1004C00000680F49B0FBF1F52846FFF7CDFF002487
:1004D00008E000BF4FF0E020006900F48030002801
:1004E000F8D0641C00988442F3D34FF0E0200069F8
:1004F00020F001004FF0E021086138BD000000202D
:1005000040420F007047000010B5064800680649D9
:10051000B0FBF1F42046FFF7A7FF08B100BFFEE7EC
:1005200010BD000000000020A086010010B50021D1
:1005300000200022214B5B6803F00C0121B104294B
:1005400006D0082928D107E01D4B1E4C236027E068
:100550001B4B1C4C236023E0184B5B6803F47010AA
:10056000164B5B6803F48032022303EB904022B900
:10057000154B4343134C23600DE0104B5B6803F4B1
:10058000003323B1104B43430E4C236003E00C4B6C
:1005900043430C4C236003E0094B0A4C236000BF2B
:1005A00000BF064B5B68C3F30313084CE15C054BCB
:1005B0001B68CB40034C236010BD000000100240BC
:1005C00000127A000000002000093D000400002015
:1005D00010B51348006840F0010011490860084652
:1005E0004068104908400E494860084600680E49B6
:1005F00008400B4908600846006820F48020086025
:100600000846406820F4FE0048604FF41F008860F0
:10061000FFF7B5FE4FF000600449086010BD000010
:10062000001002400000FFF8FFFFF6FE08ED00E0BA
:1006300000BFFEE702E008C8121F08C1002AFAD175
:1006400070477047002001E001C1121F002AFBD152
:10065000704700002DE9F84305460E4617469846B8
:100660000DA000680090012D01DC0F2E01DDBDE81A
:10067000F8831DF8051041EA060000F00FF8002489
:1006800005E018F8040000F039F8601CC4B2BC4260
:10069000F7DB00BFEBE7000080C0000010B50446A8
:1006A000FFF722FE4FF480511348FFF7E6FD4FF4A9
:1006B00000611148FFF7E1FD4FF480610E48FFF73C
:1006C000DCFD0120FFF7FAFE4FF480610A48FFF7D6
:1006D000D6FD09480C30006844F47F4108400649C3
:1006E0000C31086009150448FFF7C7FD4FF4C870C6
:1006F000FFF7E4FE10BD0000000C014010B50446F9
:10070000FFF7F2FD4FF480511048FFF7B8FD4FF4AA
:1007100000610E48FFF7B1FD1E20FFF7CFFE4FF43A
:1007200080610A48FFF7ABFD08480C30006844F4CC
:100730007F41084005490C31086009150348FFF75F
:100740009CFD4FF4C870FFF7B9FE10BD000C0140CE
:1007500000F000F8FFF7EAFE4FF4A060FFF7F2FDAB
:10076000FFF7D2FEFFF7B0FD0BE006A30722012141
:100770000020FFF76FFF05A3102200210120FFF7E3
:1007800069FFF2E74C4344313630320031313131C8
:1007900032323232333333333434343400000000F5
:1007A000C007000800000020140000003406000804
:1007B000D4070008140000200404000044060008C8
:1007C00000A24A040000000000000000010203042F
:0407D0000607080907
:04000005080000ED02
:00000001FF
