:020000040800F2
:1000000018040020050100087102000869020008B8
:100010006D0200084D010008F30600080000000012
:10002000000000000000000000000000AD02000819
:10003000510100080000000089020008990300082F
:100040001F0100081F0100081F0100081F01000810
:100050001F0100081F0100081F0100081F01000800
:100060001F0100081F0100081F0100081F010008F0
:100070001F0100081F0100081F0100081F010008E0
:100080001F0100081F0100081F0100081F010008D0
:100090001F0100081F0100081F0100081F010008C0
:1000A0001F0100081F0100081F0100081F010008B0
:1000B0001F0100081F0100081F0100081F010008A0
:1000C0001F0100081F0100081F0100081F01000890
:1000D0001F0100081F0100081F0100081F01000880
:1000E0001F0100081F0100081F010008DFF810D0E1
:1000F00000F01AF80048004715070008AFF3008029
:10010000180400200648804706480047FEE7FEE73F
:10011000FEE7FEE7FEE7FEE7FEE7FEE7FEE7FEE7B7
:1001200041040008ED000008064C074D06E0E068B9
:1001300040F0010394E8070098471034AC42F6D32E
:10014000FFF7D8FF040800082408000800BFFEE7F6
:1001500070472DE9F04102460025002600200023CB
:100160000024002791F803C00CF00F0591F803C09C
:100170000CF0100CBCF1000F03D091F802C04CEA57
:10018000050591F800C0BCF1000F31D014680020C3
:100190002BE04FF0010C0CFA00F3B1F800C00CEAB0
:1001A00003069E4220D183004FF00F0C0CFA03F798
:1001B000BC4305FA03FC4CEA040491F803C0BCF10B
:1001C000280F06D14FF0010C0CFA00FCC2F814C045
:1001D0000AE091F803C0BCF1480F05D14FF0010CC3
:1001E0000CFA00FCC2F810C0401C0828D1D31460DF
:1001F000B1F800C0BCF1FF0F34DD546800202EE0E0
:1002000000F1080C4FF0010808FA0CF3B1F800C037
:100210000CEA03069E4221D183004FF00F0C0CFA2A
:1002200003F7BC4305FA03FC4CEA040491F803C04D
:10023000BCF1280F05D100F1080C08FA0CF8C2F83F
:10024000148091F803C0BCF1480F07D100F1080CED
:100250004FF0010808FA0CF8C2F81080401C08287A
:10026000CED35460BDE8F08100BFFEE700BFFEE7DB
:100270007047000002490143024A116070470000C4
:100280000000FA050CED00E07047000029B1064AB5
:1002900092690243044B9A6104E0034A92698243E3
:1002A000014B9A617047000000100240704710B582
:1002B00000F002F810BD00000CB500200190009085
:1002C0003348006840F480303149086000BF30484E
:1002D000006800F4003000900198401C01900098E4
:1002E00018B90198B0F5A06FF1D12948006800F461
:1002F000003010B10120009001E000200090009833
:10030000012843D12348006840F0100021490860CB
:100310000846006820F0030008600846006840F0C6
:10032000020008601A484068194948600846406859
:1003300048600846406840F480604860084640686D
:1003400020F47C1048600846406840F4E81048609B
:100350000846006840F08070086000BF0C480068E4
:1003600000F000700028F9D00948406820F0030030
:10037000074948600846406840F00200486000BFF6
:100380000348406800F00C000828F9D10CBD0000BB
:1003900000100240002002407047000010B500210C
:1003A00000200022214B5B6803F00C0121B10429DD
:1003B00006D0082928D107E01D4B1E4C236027E0FA
:1003C0001B4B1C4C236023E0184B5B6803F470103C
:1003D000164B5B6803F48032022303EB904022B992
:1003E000154B4343134C23600DE0104B5B6803F443
:1003F000003323B1104B43430E4C236003E00C4BFE
:1004000043430C4C236003E0094B0A4C236000BFBC
:1004100000BF064B5B68C3F30313084CE15C054B5C
:100420001B68CB40034C236010BD0000001002404D
:1004300000127A000000002000093D0004000020A6
:1004400010B51348006840F00100114908600846E3
:100450004068104908400E494860084600680E4947
:1004600008400B4908600846006820F480200860B6
:100470000846406820F4FE0048604FF41F00886082
:10048000FFF715FF4FF000600449086010BD000041
:10049000001002400000FFF8FFFFF6FE08ED00E04C
:1004A00021B1028842F08002028004E002884FF607
:1004B0007F731A400280704721B1028842F0010226
:1004C000028004E002884FF6FE731A4002807047F3
:1004D00031B1B0F8442042F40042A0F8442005E0D5
:1004E000B0F84420C2F30E02A0F844207047000088
:1004F00070B5002400220023058C4FF6FE763540AF
:100500000584028C8388048B4FF68F752C40B51EB2
:100510002C400D882C43751E2A400D892A434D8896
:100520002A43144DA8420BD0134DA84208D0134DB6
:10053000A84205D0124DA84202D0124DA84213D1B4
:100540004FF6F7752A404D892A434FF6FB752A402E
:100550008D882A434FF6FF652B404FF6FF552B4001
:100560008D892B43CD892B4383800483CD88858659
:10057000028470BD002C0140003401400040014065
:1005800000440140004801400A460021018B4FF61B
:10059000F7731940114301837047000070B50022C2
:1005A00000230024058C4EF6FF7635400584038C2D
:1005B0008488828B48F6FF752A404FF6FF452A4013
:1005C0000D884FF6FF7606EA05252A434DF6FF759E
:1005D0002B400D8906EA05352B434D8806EA053583
:1005E0002B430B4DA84202D00A4DA84208D14BF62E
:1005F000FF752C408D894FF6FF7606EA85152C4352
:1006000084808283CD88A0F84050038470BD0000B0
:10061000002C0140003401400A460021818B4FF23A
:10062000FF7319404FF6FF7303EA022319438183D6
:10063000704781867047A0F84010704700220288FA
:100640001D4B98420ED01D4B98420BD0B0F1804FFD
:1006500008D01B4B984205D01A4B984202D01A4B37
:10066000984204D14FF68F731A404B881A43174BA8
:10067000984207D0164B984204D04FF6FF431A40D9
:10068000CB881A4302808B8883850B8803850A4BAD
:1006900098420BD0094B984208D00E4B984205D097
:1006A0000D4B984202D00D4B984201D10B7A038634
:1006B0000123838270470000002C01400034014078
:1006C0000004004000080040000C00400010004002
:1006D0000014004000400140004401400048014037
:1006E0004FF6FF71818000210180C180418001723D
:1006F000704700BFFEE702E008C8121F08C1002AC9
:10070000FAD170477047002001E001C1121F002A92
:10071000FBD1704700F000F8FFF740FE4FF4A060F7
:10072000FFF7A8FD41F61F41002000F007F804E0A4
:1007300040F60F61084600F057F8F9E730B589B088
:1007400005460C46012140F60500FFF79FFD1820E5
:100750008DF823004FF41060ADF8200003208DF8D1
:10076000220008A91E48FFF7F4FC05A8FFF7B8FF10
:100770000020ADF81A00ADF81600ADF81450ADF831
:10078000184005A91748FFF759FF6020ADF804008D
:100790000020ADF80C000120ADF806000020ADF8F7
:1007A0000A0001A90F48FFF7A3FE01A90D48FFF7B2
:1007B000F5FE08210B48FFF7E7FE08210948FFF77F
:1007C0002BFF01210748FFF76BFE01210548FFF7CA
:1007D0007FFE01210348FFF76FFE09B030BD000026
:1007E00000080140002C014070B504460D4621462A
:1007F0000348FFF71EFF29460148FFF71CFF70BDA5
:10080000002C014024080008000000201400000013
:10081000F606000838080008140000200404000050
:100820000607000800A24A040000000000000000C3
:08083000010203040607080998
:04000005080000ED02
:00000001FF
