:020000040800F2
:1000000018040020050100084108000869070008DD
:100010003D08000833060008710A000800000000CF
:100020000000000000000000000000007D08000843
:1000300037060008000000004308000869090008AE
:100040001F0100081F0100081F0100081F01000810
:100050001F0100081F0100081F0100081F01000800
:100060001F0100081F0100081F0100081F010008F0
:100070001F0100081F0100081F0100081F010008E0
:100080001F0100081F0100081F0100081F010008D0
:100090001F0100081F0100081F0100081F010008C0
:1000A0001F0100081F0100081F0100081F010008B0
:1000B0001F0100081F0100081F0100081F010008A0
:1000C0001F0100081F0100081F0100081F01000890
:1000D0001F0100081F0100081F0100081F01000880
:1000E0001F0100081F0100081F010008DFF810D0E1
:1000F00000F07EF900480047290E0008AFF30080A9
:10010000180400200648804706480047FEE7FEE73F
:10011000FEE7FEE7FEE7FEE7FEE7FEE7FEE7FEE7B7
:10012000110A0008ED0000082DE9FE4F81EA0304E2
:1001300004F0004421F0004100944FF0000B23F044
:10014000004350EA01045ED052EA03045BD0C3F3DB
:100150000A54C1F30A552C44A4F2F3340194A0FBD1
:100160000254C1F3130141F48011C3F3130343F4A8
:10017000801301FB024400FB034E840A970A44EA01
:10018000815447EA8357A4FB076802958D0A05FB53
:1001900007854FEA932C04FB0C542705029D4FEA78
:1001A000065847EA1637B5EB08056EEB070C870EC5
:1001B000920E47EA811742EA8312A7FB0201B6EBCF
:1001C0000B0164EB00042B0D43EA0C335E1844EB87
:1001D0001C50DA465146E7FB0201C5F313044FEA0F
:1001E0000B3343EA14534FEA0432019C43EA0603FB
:1001F000A4F10C040294009CCDE900B400F0AAF82C
:1002000003B0BDE8F08F00200146F9E796230022F5
:10021000114600F062B820F00040C10DC0F3160096
:1002200040F400007F2901DA00207047962903DCA2
:10023000C1F19601C840704796398840704700F078
:10024000004230F000400AD0C10D01F56071C0F3EA
:10025000160042EA0151C2084007114370470020CE
:100260000146704701F0004330B421F0004150EAEC
:10027000010206D00A0DA2F56072C1F31301002A33
:1002800002DC30BC00207047440F44EAC104C100C6
:10029000E01830BC00EBC25000F016B830B50B4689
:1002A000014600202022012409E021FA02F59D42A6
:1002B00005D303FA02F5491B04FA02F52844151E7A
:1002C000A2F10102F1DC30BD0029A8BF7047401C3B
:1002D000490008BF20F00100704710B4B0FA80FC5C
:1002E00000FA0CF050EA010404BF10BC704749B199
:1002F000CCF1200421FA04F411FA0CF118BF012109
:1003000021430843A3EB0C01CB1D4FEA00614FEAE8
:10031000102042BF002010BC704700EBC3501044B7
:100320000029A4BF10BC7047401C490008BF20F042
:10033000010010BC704710B5141E73F1000408DAF8
:10034000401C41F1000192185B411A4301D120F099
:10035000010010BD2DE9F04D92469B4611B1B1FA56
:1003600081F202E0B0FA80F22032904600F052F8BA
:1003700004460F4640EA0A0041EA0B0153465A463A
:10038000084313D0114653EA010019D0C8F14002C6
:10039000504600F04EF805460E4650465946424635
:1003A00000F038F8084305D0012004E02046394623
:1003B000BDE8F08D0020054346EAE0762C43374344
:1003C0000A986305E40AA0EB08000022FD0A44EA4B
:1003D00047540A3002D500200146E9E7010510190B
:1003E0006941DDE9084500196941BDE8F04DA2E722
:1003F000064C074D06E0E06840F0010394E8070072
:1004000098471034AC42F6D3FFF774FEF80E00089C
:10041000180F0008202A04DB203A00FA02F100201D
:1004200070479140C2F1200320FA03F31943904032
:100430007047202A04DB203A21FA02F0002170479D
:1004400021FA02F3D040C2F120029140084319463C
:10045000704721B1826842F00102826003E0826845
:1004600022F001028260704700B587B001214FF48D
:10047000017000F0F3F9002000F0E4F90220ADF87B
:10048000180000208DF81B0006A9194800F0D4F8C8
:10049000002001908DF808008DF809004FF46020CD
:1004A00003900020049001208DF8140001A9114848
:1004B00000F026F80523012211460E4800F048F806
:1004C0000C4800F0A1F842F2107000F0A6FB0948B9
:1004D00000F0AAF842F2107000F09FFB01210548DD
:1004E000FFF7B7FF0121034800F093F807B000BD04
:1004F00000080140002401400146C86C80B27047EA
:1005000030B502460020002350680F4C20400D7982
:100510000C6844EA05242043506090680B4C20404E
:10052000D1E902542C434D7944EA450420439060BC
:10053000D06A20F470000C7C641EE4B2234340EACD
:100540000350D06230BD0000FFFEF0FFFDF7F1FF69
:10055000F0B504460D4600200021092D11DDE068AC
:10056000A5F10A0606EB4607072606FA07F18843B7
:10057000A5F10A0606EB460603FA06F10843E06019
:100580000CE0206905EB4507072606FA07F18843CA
:1005900005EB450603FA06F108432061072A0FDA46
:1005A000606B561E06EB86071F2606FA07F1884386
:1005B000561E06EB860605FA06F10843606322E044
:1005C0000D2A0FDA206BD61F06EB86071F2606FAC8
:1005D00007F18843D61F06EB860605FA06F10843A5
:1005E000206310E0E06AA2F10D0606EB86071F26E5
:1005F00006FA07F18843A2F10D0606EB860605FA16
:1006000006F10843E062F0BD816841F008018160B5
:10061000704721B1826842F4A002826003E08268E0
:1006200022F4A00282607047816841F00401816079
:10063000704700BFFEE770472DE9F04102460025F4
:100640000026002000230024002791F803C00CF0AE
:100650000F0591F803C00CF0100CBCF1000F03D093
:1006600091F802C04CEA050591F800C0BCF1000FFA
:1006700031D0146800202BE04FF0010C0CFA00F38D
:10068000B1F800C00CEA03069E4220D183004FF06F
:100690000F0C0CFA03F7BC4305FA03FC4CEA040404
:1006A00091F803C0BCF1280F06D14FF0010C0CFAF1
:1006B00000FCC2F814C00AE091F803C0BCF1480F76
:1006C00005D14FF0010C0CFA00FCC2F810C0401C20
:1006D0000828D1D31460B1F800C0BCF1FF0F34DD9D
:1006E000546800202EE000F1080C4FF0010808FAD1
:1006F0000CF3B1F800C00CEA03069E4221D183003E
:100700004FF00F0C0CFA03F7BC4305FA03FC4CEA5C
:10071000040491F803C0BCF1280F05D100F1080CC6
:1007200008FA0CF8C2F8148091F803C0BCF1480F25
:1007300007D100F1080C4FF0010808FA0CF8C2F8D4
:100740001080401C0828CED35460BDE8F0810246DA
:10075000002093680B400BB1012000E0002070479F
:10076000416170470161704700BFFEE708B5012194
:10077000082000F073F810208DF8030001208DF898
:1007800002004FF4E050ADF8000069460648FFF75C
:1007900053FF14208DF80300FF20ADF800006946D8
:1007A0000148FFF749FF08BD000C014010B5FFF7F5
:1007B000DDFF382000F0DEFA0C2000F0DBFA062026
:1007C00000F0D8FA012000F0D5FA10BD70B5064649
:1007D0000C460EB9E5B202E004F14000C5B245F0A6
:1007E000800000F0C7FA70BD10B5FF201249086004
:1007F000891411480C38FFF7B3FF4FF400610E481D
:100800000C38FFF7AFFF4FF480610B480C38FFF74F
:10081000A9FF012000F006FA00BF802106480C382D
:10082000FFF795FF04464FF4806103480C38FFF74B
:1008300097FF002CF1D110BD0C0C014000BFFEE76A
:100840007047704701460020034A506820F440403A
:1008500008435060704700000010024029B1064A6A
:1008600092690243044B9A6104E0034A926982430D
:10087000014B9A617047000000100240704710B5AC
:1008800000F002F810BD00000CB5002001900090AF
:100890003348006840F480303149086000BF304878
:1008A000006800F4003000900198401C019000980E
:1008B00018B90198B0F5A06FF1D12948006800F48B
:1008C000003010B10120009001E00020009000985D
:1008D000012843D12348006840F0100021490860F6
:1008E0000846006820F0030008600846006840F0F1
:1008F000020008601A484068194948600846406884
:1009000048600846406840F4806048600846406897
:1009100020F47C1048600846406840F4E8104860C5
:100920000846006840F08070086000BF0C4800680E
:1009300000F000700028F9D00948406820F003005A
:10094000074948600846406840F00200486000BF20
:100950000348406800F00C000828F9D10CBD0000E5
:1009600000100240002002407047000010B5002136
:1009700000200022214B5B6803F00C0121B1042907
:1009800006D0082928D107E01D4B1E4C236027E024
:100990001B4B1C4C236023E0184B5B6803F4701066
:1009A000164B5B6803F48032022303EB904022B9BC
:1009B000154B4343134C23600DE0104B5B6803F46D
:1009C000003323B1104B43430E4C236003E00C4B28
:1009D00043430C4C236003E0094B0A4C236000BFE7
:1009E00000BF064B5B68C3F30313084CE15C054B87
:1009F0001B68CB40034C236010BD00000010024078
:100A000000127A000000002000093D0004000020D0
:100A100010B51348006840F001001149086008460D
:100A20004068104908400E494860084600680E4971
:100A300008400B4908600846006820F480200860E0
:100A40000846406820F4FE0048604FF41F008860AC
:100A5000FFF715FF4FF000600449086010BD00006B
:100A6000001002400000FFF8FFFFF6FE08ED00E076
:100A700000BFFEE70FB4084B10B504A902AA039803
:100A800000F01CF8044602A9002000F0C1F820463E
:100A900010BC5DF814FB0000110C000802E008C84F
:100AA000121F08C1002AFAD170477047002001E0E8
:100AB00001C1121F002AFBD1704700002DE9FF4F32
:100AC00089B09B460446002506E025280BD05A46EF
:100AD0000B999047641C6D1C20780028F5D10DB04F
:100AE0002846BDE8F08F0027B8460122474900E0BC
:100AF000074314F8013F203B02FA03F00842F7D104
:100B000020782E2819D114F8010F47F004072A285D
:100B10000ED06FF02F022078A0F1300109290CD8F7
:100B200008EB880102EB410100EB0108641CF2E7CD
:100B30000A98641C50F8048B0A9020780028CED0C4
:100B4000642808D0692806D075281ED05A460B990B
:100B500090476D1C58E00A994FF00A0901C90A91A3
:100B6000002802DA40422D2102E0390504D52B216C
:100B70008DF82010012103E0F90704D02021F7E7C8
:100B80008A4608AE0DE00021FAE70A994FF00A09FB
:100B900001C90A91F7E74946FFF780FB303106F8B3
:100BA000011D0028F7D1ADEB060000F12009780700
:100BB00001D44FF00108C84502DDA8EB090000E0B0
:100BC00000208046002706E008A85A46C05D0B9921
:100BD00090476D1C7F1C5745F6DB04E030205A46D9
:100BE0000B9990476D1CB8F10001A8F10108F5DCE4
:100BF00005E016F8010B5A460B9990476D1CB9F1A8
:100C00000001A9F10109F4DC641C65E70928010071
:100C10000A68531C0B601070704700E0401E0028EB
:100C2000FCD1704706E00A2101E04A1E91B200297A
:100C3000FBDC401E0028F6D1704700002DE9F84388
:100C400005460E46174698460DA000680090012DF7
:100C500001DC0F2E01DDBDE8F8831DF8051041EA27
:100C6000060000F087F8002405E018F8040000F002
:100C7000B1F8601CC4B2BC42F7DB00BFEBE7000078
:100C800080C0000070B504460D46012D05D104F169
:100C90003001C8B200F09EF86BE0022D12D10A209C
:100CA000B4FBF0F03030C6B2304600F093F80A20C2
:100CB000B4FBF0F100FB114000F13006304600F0CB
:100CC00089F856E0032D24D16420B4FBF0F03030D5
:100CD000C6B2304600F07EF86420B4FBF0F100FBB1
:100CE00011400A21B0FBF1F000F13006304600F06F
:100CF00071F86420B4FBF0F100FB11400A21B0FB55
:100D0000F1F201FB120000F13006304600F062F80B
:100D10002FE0042D2DD14FF47A70B4FBF0F0303079
:100D2000C6B2304600F056F84FF47A70B4FBF0F1DA
:100D300000FB11406421B0FBF1F03030C6B2304608
:100D400000F048F86420B4FBF0F100FB11400A21E8
:100D5000B0FBF1F000F13006304600F03BF80A201D
:100D6000B4FBF0F100FB114000F13006304600F01A
:100D700031F870BD10B50446FFF736FD4FF48051D1
:100D80001348FFF7EDFC4FF400611148FFF7E8FC52
:100D90004FF480610E48FFF7E3FC0120FFF742FFAC
:100DA0004FF480610A48FFF7DDFC09480C30006809
:100DB00044F47F41084006490C3108600915044895
:100DC000FFF7CEFC4FF4C870FFF72CFF10BD0000FA
:100DD000000C014010B50446FFF706FD4FF48051AA
:100DE0001048FFF7BFFC4FF400610E48FFF7B8FC56
:100DF0001E20FFF717FF4FF480610A48FFF7B2FC8F
:100E000008480C30006844F47F41084005490C3123
:100E1000086009150348FFF7A3FC4FF4C870FFF7FB
:100E200001FF10BD000C014000F000F80EB50020DD
:100E300001900290FFF79AFDFFF7B8FCFFF714FB53
:100E400026A3042201210020FFF7F8FE44E001213F
:100E50002448FFF7DEFB2348FFF74EFB0446C4F3AC
:100E60000B0406210020FFF7B1FC04212046FFF708
:100E700009FF2046FFF7CAF90090FFF7E0F907469F
:100E80000022194BFFF750F90546FFF7EBF98346AF
:100E90005846FFF7C0F984B24FF47A7094FBF0F033
:100EA0001FFA80F94FF47A7094FBF0F100FB1140C7
:100EB0001FFA80FA53464A460CA101A8FFF7DAFD53
:100EC00001AB052201210846FFF7B8FE09A3012264
:100ED00006211046FFF7B2FEB9E700004144433A4D
:100EE000000000000024014000C8E93F25642E25D1
:100EF0006400000056000000180F000800000020E9
:100F0000140000009C0A00082C0F000814000020A8
:100F100004040000AC0A000800A24A04000000001B
:0C0F20000000000001020304060708099D
:04000005080000ED02
:00000001FF
